20251020-14:24:36.828019000 : 8=FIX.4.4|9=75|35=A|34=1|49=HSX_TRADING|52=20251020-14:24:36.780|56=KRXSIMHSX|98=0|108=30|10=045|
20251020-14:24:36.828431000 : 8=FIX.4.4|9=75|35=A|34=1|49=KRXSIMHSX|52=20251020-14:24:36.828|56=HSX_TRADING|98=0|108=30|10=048|
20251020-14:25:06.135044000 : 8=FIX.4.4|9=63|35=0|34=2|49=KRXSIMHSX|52=20251020-14:25:06.134|56=HSX_TRADING|10=248|
20251020-14:25:06.135578000 : 8=FIX.4.4|9=63|35=0|34=2|49=HSX_TRADING|52=20251020-14:25:06.135|56=KRXSIMHSX|10=249|
20251020-14:25:36.067033000 : 8=FIX.4.4|9=63|35=0|34=3|49=KRXSIMHSX|52=20251020-14:25:36.066|56=HSX_TRADING|10=000|
20251020-14:25:36.067879000 : 8=FIX.4.4|9=63|35=0|34=3|49=HSX_TRADING|52=20251020-14:25:36.067|56=KRXSIMHSX|10=001|
20251020-14:26:06.603364000 : 8=FIX.4.4|9=63|35=0|34=4|49=KRXSIMHSX|52=20251020-14:26:06.602|56=HSX_TRADING|10=251|
20251020-14:26:06.605140000 : 8=FIX.4.4|9=63|35=0|34=4|49=HSX_TRADING|52=20251020-14:26:06.604|56=KRXSIMHSX|10=253|
20251020-14:26:16.807534000 : 8=FIX.4.4|9=247|35=D|34=5|49=HSX_TRADING|50=00041|52=20251020-14:26:16.763|56=KRXSIMHSX|128=STO|129=G1|1=XXXX123456|11=1760970276762|21=1|38=100|40=2|44=4840|54=1|55=VN000000VPH3|59=0|60=20251020-14:26:16.760|75=20251020|421=704|581=1|20000=1000|20054=00|20064=0|10=219|
20251020-14:26:16.808927000 : 8=FIX.4.4|9=196|35=8|34=5|49=KRXSIMHSX|52=20251020-14:26:16.808|56=HSX_TRADING|6=0|11=1760970276762|14=0|17=N/A00000587858|37=00000003754|38=0|39=8|54=1|55=VN000000VPH3|60=20251020-14:26:16.808|103=2|150=8|151=0|10=119|
20251020-14:26:29.015634000 : 8=FIX.4.4|9=247|35=D|34=6|49=HSX_TRADING|50=00041|52=20251020-14:26:29.014|56=KRXSIMHSX|128=STO|129=G1|1=XXXX123456|11=1760970276763|21=1|38=100|40=2|44=4850|54=2|55=VN000000VPH3|59=0|60=20251020-14:26:29.014|75=20251020|421=704|581=1|20000=1000|20054=00|20064=0|10=212|
20251020-14:26:29.017317000 : 8=FIX.4.4|9=196|35=8|34=6|49=KRXSIMHSX|52=20251020-14:26:29.017|56=HSX_TRADING|6=0|11=1760970276763|14=0|17=N/A00000587859|37=00000003755|38=0|39=8|54=2|55=VN000000VPH3|60=20251020-14:26:29.017|103=2|150=8|151=0|10=116|
20251020-14:26:44.835242000 : 8=FIX.4.4|9=247|35=D|34=7|49=HSX_TRADING|50=00041|52=20251020-14:26:44.834|56=KRXSIMHSX|128=STO|129=G1|1=XXXX123456|11=1760970276764|21=1|38=100|40=2|44=4840|54=1|55=VN000000VPH3|59=0|60=20251020-14:26:44.833|75=20251020|421=704|581=1|20000=1000|20054=00|20064=0|10=225|
20251020-14:26:44.836806000 : 8=FIX.4.4|9=196|35=8|34=7|49=KRXSIMHSX|52=20251020-14:26:44.836|56=HSX_TRADING|6=0|11=1760970276764|14=0|17=N/A00000587860|37=00000003756|38=0|39=8|54=1|55=VN000000VPH3|60=20251020-14:26:44.836|103=2|150=8|151=0|10=122|
20251020-14:27:14.260050000 : 8=FIX.4.4|9=63|35=0|34=8|49=HSX_TRADING|52=20251020-14:27:14.259|56=KRXSIMHSX|10=007|
20251020-14:27:14.260358000 : 8=FIX.4.4|9=63|35=0|34=8|49=KRXSIMHSX|52=20251020-14:27:14.260|56=HSX_TRADING|10=255|
20251020-14:27:44.431738000 : 8=FIX.4.4|9=63|35=0|34=9|49=KRXSIMHSX|52=20251020-14:27:44.431|56=HSX_TRADING|10=003|
20251020-14:27:44.432398000 : 8=FIX.4.4|9=63|35=0|34=9|49=HSX_TRADING|52=20251020-14:27:44.432|56=KRXSIMHSX|10=004|
20251020-14:28:14.203395000 : 8=FIX.4.4|9=64|35=0|34=10|49=KRXSIMHSX|52=20251020-14:28:14.203|56=HSX_TRADING|10=039|
20251020-14:28:14.203947000 : 8=FIX.4.4|9=64|35=0|34=10|49=HSX_TRADING|52=20251020-14:28:14.203|56=KRXSIMHSX|10=039|
20251020-14:28:44.363538000 : 8=FIX.4.4|9=64|35=0|34=11|49=HSX_TRADING|52=20251020-14:28:44.363|56=KRXSIMHSX|10=050|
20251020-14:28:44.364004000 : 8=FIX.4.4|9=64|35=0|34=11|49=KRXSIMHSX|52=20251020-14:28:44.363|56=HSX_TRADING|10=050|
20251020-14:29:14.212054000 : 8=FIX.4.4|9=64|35=0|34=12|49=KRXSIMHSX|52=20251020-14:29:14.211|56=HSX_TRADING|10=041|
20251020-14:29:14.212546000 : 8=FIX.4.4|9=64|35=0|34=12|49=HSX_TRADING|52=20251020-14:29:14.212|56=KRXSIMHSX|10=042|
20251020-14:29:44.213928000 : 8=FIX.4.4|9=64|35=0|34=13|49=HSX_TRADING|52=20251020-14:29:44.213|56=KRXSIMHSX|10=047|
20251020-14:29:44.214210000 : 8=FIX.4.4|9=64|35=0|34=13|49=KRXSIMHSX|52=20251020-14:29:44.214|56=HSX_TRADING|10=048|
20251020-14:30:08.000516000 : 8=FIX.4.4|9=248|35=D|34=14|49=HSX_TRADING|50=00041|52=20251020-14:30:07.999|56=KRXSIMHSX|128=STO|129=G1|1=XXXX123456|11=1760970276765|21=1|38=100|40=2|44=4850|54=2|55=VN000000VPH3|59=0|60=20251020-14:30:07.999|75=20251020|421=704|581=1|20000=1000|20054=00|20064=0|10=032|
20251020-14:30:08.004061000 : 8=FIX.4.4|9=233|35=8|34=14|49=KRXSIMHSX|52=20251020-14:30:08.003|56=HSX_TRADING|1=XXXX123456|6=0|11=1760970276765|14=0|17=STOG100000587861|37=00000003757|38=100|39=8|40=2|44=4850|54=2|55=VN000000VPH3|59=0|60=20251020-14:30:08.003|103=99|150=8|151=0|10=113|
20251020-14:30:17.773650000 : 8=FIX.4.4|9=248|35=D|34=15|49=HSX_TRADING|50=00041|52=20251020-14:30:17.773|56=KRXSIMHSX|128=STO|129=G1|1=XXXX123456|11=1760970276766|21=1|38=100|40=2|44=4840|54=1|55=VN000000VPH3|59=0|60=20251020-14:30:17.772|75=20251020|421=704|581=1|20000=1000|20054=00|20064=0|10=013|
20251020-14:30:17.776083000 : 8=FIX.4.4|9=233|35=8|34=15|49=KRXSIMHSX|52=20251020-14:30:17.776|56=HSX_TRADING|1=XXXX123456|6=0|11=1760970276766|14=0|17=STOG100000587862|37=00000003759|38=100|39=8|40=2|44=4840|54=1|55=VN000000VPH3|59=0|60=20251020-14:30:17.775|103=99|150=8|151=0|10=149|
20251020-14:30:47.081237000 : 8=FIX.4.4|9=64|35=0|34=16|49=KRXSIMHSX|52=20251020-14:30:47.081|56=HSX_TRADING|10=048|
20251020-14:30:47.081962000 : 8=FIX.4.4|9=64|35=0|34=16|49=HSX_TRADING|52=20251020-14:30:47.081|56=KRXSIMHSX|10=048|
20251020-14:31:17.581885000 : 8=FIX.4.4|9=64|35=0|34=17|49=KRXSIMHSX|52=20251020-14:31:17.581|56=HSX_TRADING|10=052|
20251020-14:31:17.582434000 : 8=FIX.4.4|9=64|35=0|34=17|49=HSX_TRADING|52=20251020-14:31:17.582|56=KRXSIMHSX|10=053|
20251020-14:31:33.204747000 : 8=FIX.4.4|9=248|35=D|34=18|49=HSX_TRADING|50=00041|52=20251020-14:31:33.204|56=KRXSIMHSX|128=STO|129=G1|1=XXXX123456|11=1760970276767|21=1|38=100|40=2|44=4850|54=2|55=VN000000VPH3|59=0|60=20251020-14:31:33.203|75=20251020|421=704|581=1|20000=1000|20054=00|20064=0|10=251|
20251020-14:31:33.207065000 : 8=FIX.4.4|9=228|35=8|34=18|49=KRXSIMHSX|52=20251020-14:31:33.206|56=HSX_TRADING|1=XXXX123456|6=0|11=1760970276767|14=0|17=STOG100000587863|37=00000003761|38=100|39=0|40=2|44=4850|54=2|55=VN000000VPH3|59=0|60=20251020-14:31:33.206|150=0|151=100|10=141|
20251020-14:31:39.125915000 : 8=FIX.4.4|9=248|35=D|34=19|49=HSX_TRADING|50=00041|52=20251020-14:31:39.124|56=KRXSIMHSX|128=STO|129=G1|1=XXXX123456|11=1760970276768|21=1|38=100|40=2|44=4840|54=1|55=VN000000VPH3|59=0|60=20251020-14:31:39.123|75=20251020|421=704|581=1|20000=1000|20054=00|20064=0|10=009|
20251020-14:31:39.129668000 : 8=FIX.4.4|9=228|35=8|34=19|49=KRXSIMHSX|52=20251020-14:31:39.129|56=HSX_TRADING|1=XXXX123456|6=0|11=1760970276768|14=0|17=STOG100000587864|37=00000003763|38=100|39=0|40=2|44=4840|54=1|55=VN000000VPH3|59=0|60=20251020-14:31:39.129|150=0|151=100|10=164|
20251020-14:31:44.174693000 : 8=FIX.4.4|9=248|35=D|34=20|49=HSX_TRADING|50=00041|52=20251020-14:31:44.173|56=KRXSIMHSX|128=STO|129=G1|1=XXXX123456|11=1760970276769|21=1|38=100|40=2|44=4850|54=2|55=VN000000VPH3|59=0|60=20251020-14:31:44.173|75=20251020|421=704|581=1|20000=1000|20054=00|20064=0|10=005|
20251020-14:31:44.178281000 : 8=FIX.4.4|9=228|35=8|34=20|49=KRXSIMHSX|52=20251020-14:31:44.178|56=HSX_TRADING|1=XXXX123456|6=0|11=1760970276769|14=0|17=STOG100000587865|37=00000003765|38=100|39=0|40=2|44=4850|54=2|55=VN000000VPH3|59=0|60=20251020-14:31:44.178|150=0|151=100|10=162|
20251020-14:31:49.173360000 : 8=FIX.4.4|9=240|35=D|34=21|49=HSX_TRADING|50=00041|52=20251020-14:31:49.172|56=KRXSIMHSX|128=STO|129=G1|1=XXXX123456|11=1760970276770|21=1|38=500|40=1|54=1|55=VN000000VPH3|59=9|60=20251020-14:31:49.172|75=20251020|421=704|581=1|20000=1000|20054=00|20064=0|10=146|
20251020-14:31:49.176907000 : 8=FIX.4.4|9=220|35=8|34=21|49=KRXSIMHSX|52=20251020-14:31:49.176|56=HSX_TRADING|1=XXXX123456|6=0|11=1760970276770|14=0|17=STOG100000587866|37=00000003767|38=500|39=0|40=1|54=1|55=VN000000VPH3|59=9|60=20251020-14:31:49.176|150=0|151=500|10=052|
20251020-14:31:49.177690000 : 8=FIX.4.4|9=247|35=8|34=22|49=KRXSIMHSX|52=20251020-14:31:49.177|56=HSX_TRADING|116=G1|1=XXXX123456|6=4850|11=1760970276770|14=200|17=STOG100000587867|31=4850|32=100|37=00000003767|38=500|39=1|40=1|54=1|55=VN000000VPH3|59=9|60=20251020-14:31:49.177|150=F|151=300|10=078|
20251020-14:31:49.178565000 : 8=FIX.4.4|9=253|35=8|34=23|49=KRXSIMHSX|52=20251020-14:31:49.178|56=HSX_TRADING|116=G1|1=XXXX123456|6=4850|11=1760970276767|14=100|17=STOG100000587868|31=4850|32=100|37=00000003761|38=100|39=2|40=2|44=4850|54=2|55=VN000000VPH3|59=0|60=20251020-14:31:49.178|150=F|151=0|10=088|
20251020-14:31:49.179599000 : 8=FIX.4.4|9=247|35=8|34=24|49=KRXSIMHSX|52=20251020-14:31:49.179|56=HSX_TRADING|116=G1|1=XXXX123456|6=4850|11=1760970276770|14=200|17=STOG100000587869|31=4850|32=100|37=00000003767|38=500|39=1|40=1|54=1|55=VN000000VPH3|59=9|60=20251020-14:31:49.179|150=F|151=300|10=086|
20251020-14:31:49.180370000 : 8=FIX.4.4|9=253|35=8|34=25|49=KRXSIMHSX|52=20251020-14:31:49.180|56=HSX_TRADING|116=G1|1=XXXX123456|6=4850|11=1760970276769|14=100|17=STOG100000587870|31=4850|32=100|37=00000003765|38=100|39=2|40=2|44=4850|54=2|55=VN000000VPH3|59=0|60=20251020-14:31:49.180|150=F|151=0|10=075|
20251020-14:31:49.180967000 : 8=FIX.4.4|9=225|35=8|34=26|49=KRXSIMHSX|52=20251020-14:31:49.180|56=HSX_TRADING|1=XXXX123456|6=4850|11=1760970276770|14=200|17=STOG100000587871|37=00000003767|38=500|39=1|40=1|54=1|55=VN000000VPH3|59=9|60=20251020-14:31:49.180|150=5|151=300|10=055|
20251020-14:31:59.008443000 : 8=FIX.4.4|9=212|35=F|34=22|49=HSX_TRADING|50=00041|52=20251020-14:31:59.007|56=KRXSIMHSX|128=STO|129=G1|1=XXXX123456|11=1760970276771|21=1|41=1760970276770|54=1|55=VN000000VPH3|60=20251020-14:31:59.007|75=20251020|421=704|581=1|10=245|
20251020-14:31:59.011159000 : 8=FIX.4.4|9=220|35=8|34=27|49=KRXSIMHSX|52=20251020-14:31:59.011|56=HSX_TRADING|1=XXXX123456|6=0|11=1760970276770|14=200|17=STOG100000587872|37=00000003767|38=500|39=4|40=1|54=1|55=VN000000VPH3|59=9|60=20251020-14:31:59.010|150=4|151=0|10=037|
20251020-14:32:23.479264000 : 8=FIX.4.4|9=64|35=5|34=23|49=HSX_TRADING|52=20251020-14:32:23.478|56=KRXSIMHSX|10=057|
20251020-14:32:23.479560000 : 8=FIX.4.4|9=64|35=5|34=28|49=KRXSIMHSX|52=20251020-14:32:23.479|56=HSX_TRADING|10=063|